{
  "contractName": "WeatherC1",
  "abi": [
    {
      "constant": false,
      "inputs": [
        {
          "name": "date",
          "type": "uint256"
        },
        {
          "name": "temperature",
          "type": "string"
        },
        {
          "name": "humidity",
          "type": "string"
        }
      ],
      "name": "createEntity",
      "outputs": [],
      "payable": false,
      "stateMutability": "nonpayable",
      "type": "function"
    },
    {
      "constant": true,
      "inputs": [],
      "name": "getEntityCount",
      "outputs": [
        {
          "name": "entityCount",
          "type": "uint256"
        }
      ],
      "payable": false,
      "stateMutability": "view",
      "type": "function"
    },
    {
      "constant": true,
      "inputs": [
        {
          "name": "nr",
          "type": "uint256"
        }
      ],
      "name": "getTemperatureByNumber",
      "outputs": [
        {
          "name": "",
          "type": "string"
        }
      ],
      "payable": false,
      "stateMutability": "view",
      "type": "function"
    },
    {
      "constant": true,
      "inputs": [
        {
          "name": "nr",
          "type": "uint256"
        }
      ],
      "name": "getHumidityByNumber",
      "outputs": [
        {
          "name": "",
          "type": "string"
        }
      ],
      "payable": false,
      "stateMutability": "view",
      "type": "function"
    },
    {
      "constant": true,
      "inputs": [
        {
          "name": "nr",
          "type": "uint256"
        }
      ],
      "name": "getAllByNumber",
      "outputs": [
        {
          "name": "",
          "type": "uint256"
        },
        {
          "name": "",
          "type": "string"
        },
        {
          "name": "",
          "type": "string"
        }
      ],
      "payable": false,
      "stateMutability": "view",
      "type": "function"
    },
    {
      "constant": true,
      "inputs": [],
      "name": "getLastEntry",
      "outputs": [
        {
          "name": "",
          "type": "uint256"
        },
        {
          "name": "",
          "type": "string"
        },
        {
          "name": "",
          "type": "string"
        }
      ],
      "payable": false,
      "stateMutability": "view",
      "type": "function"
    }
  ],
  "bytecode": "0x608060405234801561001057600080fd5b50610b61806100206000396000f300608060405260043610610078576000357c0100000000000000000000000000000000000000000000000000000000900463ffffffff1680634823ea241461007d5780635d1b45b514610123578063aea9049a1461014e578063bfe4f6d714610267578063d507c38814610320578063ed6cb75a146103c6575b600080fd5b34801561008957600080fd5b506100a8600480360381019080803590602001909291905050506104c9565b6040518080602001828103825283818151815260200191508051906020019080838360005b838110156100e85780820151818401526020810190506100cd565b50505050905090810190601f1680156101155780820380516001836020036101000a031916815260200191505b509250505060405180910390f35b34801561012f57600080fd5b5061013861058b565b6040518082815260200191505060405180910390f35b34801561015a57600080fd5b5061017960048036038101908080359060200190929190505050610597565b604051808481526020018060200180602001838103835285818151815260200191508051906020019080838360005b838110156101c35780820151818401526020810190506101a8565b50505050905090810190601f1680156101f05780820380516001836020036101000a031916815260200191505b50838103825284818151815260200191508051906020019080838360005b8381101561022957808201518184015260208101905061020e565b50505050905090810190601f1680156102565780820380516001836020036101000a031916815260200191505b509550505050505060405180910390f35b34801561027357600080fd5b5061031e60048036038101908080359060200190929190803590602001908201803590602001908080601f0160208091040260200160405190810160405280939291908181526020018383808284378201915050505050509192919290803590602001908201803590602001908080601f0160208091040260200160405190810160405280939291908181526020018383808284378201915050505050509192919290505050610742565b005b34801561032c57600080fd5b5061034b600480360381019080803590602001909291905050506107e1565b6040518080602001828103825283818151815260200191508051906020019080838360005b8381101561038b578082015181840152602081019050610370565b50505050905090810190601f1680156103b85780820380516001836020036101000a031916815260200191505b509250505060405180910390f35b3480156103d257600080fd5b506103db6108a3565b604051808481526020018060200180602001838103835285818151815260200191508051906020019080838360005b8381101561042557808201518184015260208101905061040a565b50505050905090810190601f1680156104525780820380516001836020036101000a031916815260200191505b50838103825284818151815260200191508051906020019080838360005b8381101561048b578082015181840152602081019050610470565b50505050905090810190601f1680156104b85780820380516001836020036101000a031916815260200191505b509550505050505060405180910390f35b60606000828154811015156104da57fe5b90600052602060002090600302016002018054600181600116156101000203166002900480601f01602080910402602001604051908101604052809291908181526020018280546001816001161561010002031660029004801561057f5780601f106105545761010080835404028352916020019161057f565b820191906000526020600020905b81548152906001019060200180831161056257829003601f168201915b50505050509050919050565b60008080549050905090565b60006060806000848154811015156105ab57fe5b9060005260206000209060030201600001546000858154811015156105cc57fe5b90600052602060002090600302016001016000868154811015156105ec57fe5b9060005260206000209060030201600201818054600181600116156101000203166002900480601f0160208091040260200160405190810160405280929190818152602001828054600181600116156101000203166002900480156106925780601f1061066757610100808354040283529160200191610692565b820191906000526020600020905b81548152906001019060200180831161067557829003601f168201915b50505050509150808054600181600116156101000203166002900480601f01602080910402602001604051908101604052809291908181526020018280546001816001161561010002031660029004801561072e5780601f106107035761010080835404028352916020019161072e565b820191906000526020600020905b81548152906001019060200180831161071157829003601f168201915b505050505090509250925092509193909250565b61074a610a6e565b83816000018181525050828160200181905250818160400181905250600081908060018154018082558091505090600182039060005260206000209060030201600090919290919091506000820151816000015560208201518160010190805190602001906107ba929190610a90565b5060408201518160020190805190602001906107d7929190610a90565b5050505050505050565b60606000828154811015156107f257fe5b90600052602060002090600302016001018054600181600116156101000203166002900480601f0160208091040260200160405190810160405280929190818152602001828054600181600116156101000203166002900480156108975780601f1061086c57610100808354040283529160200191610897565b820191906000526020600020905b81548152906001019060200180831161087a57829003601f168201915b50505050509050919050565b6000606080600080600080549050141515156108be57600080fd5b60016000805490500390506000818154811015156108d857fe5b9060005260206000209060030201600001546000828154811015156108f957fe5b906000526020600020906003020160010160008381548110151561091957fe5b9060005260206000209060030201600201818054600181600116156101000203166002900480601f0160208091040260200160405190810160405280929190818152602001828054600181600116156101000203166002900480156109bf5780601f10610994576101008083540402835291602001916109bf565b820191906000526020600020905b8154815290600101906020018083116109a257829003601f168201915b50505050509150808054600181600116156101000203166002900480601f016020809104026020016040519081016040528092919081815260200182805460018160011615610100020316600290048015610a5b5780601f10610a3057610100808354040283529160200191610a5b565b820191906000526020600020905b815481529060010190602001808311610a3e57829003601f168201915b5050505050905093509350935050909192565b6060604051908101604052806000815260200160608152602001606081525090565b828054600181600116156101000203166002900490600052602060002090601f016020900481019282601f10610ad157805160ff1916838001178555610aff565b82800160010185558215610aff579182015b82811115610afe578251825591602001919060010190610ae3565b5b509050610b0c9190610b10565b5090565b610b3291905b80821115610b2e576000816000905550600101610b16565b5090565b905600a165627a7a723058207315b4ae65c9fb9a94c50ac48d2786a12dcf069828ad4e3df771bbd9fcfde4b70029",
  "source": "pragma solidity ^0.4.24;\n\ncontract WeatherC1 {\n\n  struct WeatherData {\n    uint date;\n    string temperature;\n    string humidity;\n  }\n  \n  //Array with all WeatherData\n  WeatherData[] private entityStructs;\n  \n  modifier checkLength {\n      require(entityStructs.length != 0);\n      _;\n  }\n\n  //Creates a new struct and adds it to the array. date as integer because of unix timestamp\n  //temperature and humidity as string because of missing float in solidity\n  function createEntity(uint date, string temperature, string humidity) public {\n    WeatherData memory newEntity;\n    newEntity.date = date;\n    newEntity.temperature = temperature;\n    newEntity.humidity = humidity;\n    entityStructs.push(newEntity);\n  }\n  \n  //Returns the length of the array\n  function getEntityCount() public constant returns(uint entityCount) {\n    return entityStructs.length;\n  }\n  \n  //Returns one Temperature entry\n  function getTemperatureByNumber(uint nr) public constant returns(string){\n      return entityStructs[nr].temperature;\n  }\n  \n  //Returns one Humidity entry\n  function getHumidityByNumber(uint nr) public constant returns(string){\n      return entityStructs[nr].humidity;\n  }\n\n  //Returns a full struct out of the array\n  function getAllByNumber(uint nr) public constant returns(uint, string, string){\n      return(entityStructs[nr].date, entityStructs[nr].temperature, entityStructs[nr].humidity);\n  }\n  \n  //Returns allways the last entry in the array\n  function getLastEntry() public constant checkLength returns(uint, string, string){\n      uint nr = entityStructs.length - 1;\n      return(entityStructs[nr].date, entityStructs[nr].temperature, entityStructs[nr].humidity);\n  }\n}\n",
  "sourcePath": "/root/contracts/WeatherC1/contracts/WeatherC1.sol",
  "compiler": {
    "name": "solc",
    "version": "0.4.24+commit.e67f0147.Emscripten.clang"
  },
  "schemaVersion": "2.0.0",
  "updatedAt": "2018-05-26T11:09:25.883Z"
}