{
  "contractName": "WeatherC2",
  "abi": [
    {
      "inputs": [],
      "payable": false,
      "stateMutability": "nonpayable",
      "type": "constructor"
    },
    {
      "constant": false,
      "inputs": [
        {
          "name": "name",
          "type": "string"
        }
      ],
      "name": "createStation",
      "outputs": [],
      "payable": false,
      "stateMutability": "nonpayable",
      "type": "function"
    },
    {
      "constant": false,
      "inputs": [
        {
          "name": "tem",
          "type": "string"
        },
        {
          "name": "hum",
          "type": "string"
        },
        {
          "name": "pic",
          "type": "string"
        },
        {
          "name": "live",
          "type": "string"
        }
      ],
      "name": "updateReference",
      "outputs": [],
      "payable": false,
      "stateMutability": "nonpayable",
      "type": "function"
    },
    {
      "constant": false,
      "inputs": [
        {
          "name": "price",
          "type": "uint256"
        }
      ],
      "name": "updatePrice",
      "outputs": [],
      "payable": false,
      "stateMutability": "nonpayable",
      "type": "function"
    },
    {
      "constant": false,
      "inputs": [
        {
          "name": "sAddress",
          "type": "address"
        }
      ],
      "name": "pay",
      "outputs": [],
      "payable": true,
      "stateMutability": "payable",
      "type": "function"
    },
    {
      "constant": true,
      "inputs": [
        {
          "name": "sAddress",
          "type": "address"
        }
      ],
      "name": "getReference",
      "outputs": [
        {
          "name": "",
          "type": "string"
        },
        {
          "name": "",
          "type": "string"
        },
        {
          "name": "",
          "type": "string"
        },
        {
          "name": "",
          "type": "string"
        }
      ],
      "payable": false,
      "stateMutability": "view",
      "type": "function"
    },
    {
      "constant": true,
      "inputs": [
        {
          "name": "nr",
          "type": "uint256"
        }
      ],
      "name": "getStations",
      "outputs": [
        {
          "name": "",
          "type": "address"
        },
        {
          "name": "",
          "type": "string"
        }
      ],
      "payable": false,
      "stateMutability": "view",
      "type": "function"
    },
    {
      "constant": true,
      "inputs": [],
      "name": "getStationCount",
      "outputs": [
        {
          "name": "",
          "type": "uint256"
        }
      ],
      "payable": false,
      "stateMutability": "view",
      "type": "function"
    },
    {
      "constant": false,
      "inputs": [],
      "name": "destroyContract",
      "outputs": [],
      "payable": false,
      "stateMutability": "nonpayable",
      "type": "function"
    }
  ],
  "bytecode": "0x608060405234801561001057600080fd5b50336000806101000a81548173ffffffffffffffffffffffffffffffffffffffff021916908373ffffffffffffffffffffffffffffffffffffffff160217905550611850806100606000396000f30060806040526004361061008e576000357c0100000000000000000000000000000000000000000000000000000000900463ffffffff168063092a5cce146100935780630c11dedd146100aa57806319d2374e146100e057806341d57616146101495780634dcf743b146103495780638d6cc56d14610374578063cce792a6146103a1578063eaef52b31461047a575b600080fd5b34801561009f57600080fd5b506100a86105b5565b005b6100de600480360381019080803573ffffffffffffffffffffffffffffffffffffffff1690602001909291905050506106b3565b005b3480156100ec57600080fd5b50610147600480360381019080803590602001908201803590602001908080601f0160208091040260200160405190810160405280939291908181526020018383808284378201915050505050509192919290505050610a27565b005b34801561015557600080fd5b5061018a600480360381019080803573ffffffffffffffffffffffffffffffffffffffff169060200190929190505050610dec565b6040518080602001806020018060200180602001858103855289818151815260200191508051906020019080838360005b838110156101d65780820151818401526020810190506101bb565b50505050905090810190601f1680156102035780820380516001836020036101000a031916815260200191505b50858103845288818151815260200191508051906020019080838360005b8381101561023c578082015181840152602081019050610221565b50505050905090810190601f1680156102695780820380516001836020036101000a031916815260200191505b50858103835287818151815260200191508051906020019080838360005b838110156102a2578082015181840152602081019050610287565b50505050905090810190601f1680156102cf5780820380516001836020036101000a031916815260200191505b50858103825286818151815260200191508051906020019080838360005b838110156103085780820151818401526020810190506102ed565b50505050905090810190601f1680156103355780820380516001836020036101000a031916815260200191505b509850505050505050505060405180910390f35b34801561035557600080fd5b5061035e611309565b6040518082815260200191505060405180910390f35b34801561038057600080fd5b5061039f60048036038101908080359060200190929190505050611316565b005b3480156103ad57600080fd5b506103cc6004803603810190808035906020019092919050505061136a565b604051808373ffffffffffffffffffffffffffffffffffffffff1673ffffffffffffffffffffffffffffffffffffffff16815260200180602001828103825283818151815260200191508051906020019080838360005b8381101561043e578082015181840152602081019050610423565b50505050905090810190601f16801561046b5780820380516001836020036101000a031916815260200191505b50935050505060405180910390f35b34801561048657600080fd5b506105b3600480360381019080803590602001908201803590602001908080601f0160208091040260200160405190810160405280939291908181526020018383808284378201915050505050509192919290803590602001908201803590602001908080601f0160208091040260200160405190810160405280939291908181526020018383808284378201915050505050509192919290803590602001908201803590602001908080601f0160208091040260200160405190810160405280939291908181526020018383808284378201915050505050509192919290803590602001908201803590602001908080601f0160208091040260200160405190810160405280939291908181526020018383808284378201915050505050509192919290505050611474565b005b6000809054906101000a900473ffffffffffffffffffffffffffffffffffffffff1673ffffffffffffffffffffffffffffffffffffffff163373ffffffffffffffffffffffffffffffffffffffff16141515610679576040517f08c379a00000000000000000000000000000000000000000000000000000000081526004018080602001828103825260098152602001807f6e6f74206f776e6572000000000000000000000000000000000000000000000081525060200191505060405180910390fd5b6000809054906101000a900473ffffffffffffffffffffffffffffffffffffffff1673ffffffffffffffffffffffffffffffffffffffff16ff5b8060008090505b600160008373ffffffffffffffffffffffffffffffffffffffff1673ffffffffffffffffffffffffffffffffffffffff1681526020019081526020016000206002018054905081101561082f573373ffffffffffffffffffffffffffffffffffffffff16600160008473ffffffffffffffffffffffffffffffffffffffff1673ffffffffffffffffffffffffffffffffffffffff1681526020019081526020016000206002018281548110151561076d57fe5b9060005260206000200160009054906101000a900473ffffffffffffffffffffffffffffffffffffffff1673ffffffffffffffffffffffffffffffffffffffff161415610822576040517f08c379a000000000000000000000000000000000000000000000000000000000815260040180806020018281038252600c8152602001807f416c72656164792070616964000000000000000000000000000000000000000081525060200191505060405180910390fd5b80806001019150506106ba565b600160008473ffffffffffffffffffffffffffffffffffffffff1673ffffffffffffffffffffffffffffffffffffffff16815260200190815260200160002060070154341415806108805750600034145b156108f3576040517f08c379a00000000000000000000000000000000000000000000000000000000081526004018080602001828103825260108152602001807f4e6f7420656e6f7567682045746865720000000000000000000000000000000081525060200191505060405180910390fd5b600160008473ffffffffffffffffffffffffffffffffffffffff1673ffffffffffffffffffffffffffffffffffffffff1681526020019081526020016000206002013390806001815401808255809150509060018203906000526020600020016000909192909190916101000a81548173ffffffffffffffffffffffffffffffffffffffff021916908373ffffffffffffffffffffffffffffffffffffffff160217905550508273ffffffffffffffffffffffffffffffffffffffff166108fc600160008673ffffffffffffffffffffffffffffffffffffffff1673ffffffffffffffffffffffffffffffffffffffff168152602001908152602001600020600701549081150290604051600060405180830381858888f19350505050158015610a21573d6000803e3d6000fd5b50505050565b610a2f6115d6565b600073ffffffffffffffffffffffffffffffffffffffff16600160003373ffffffffffffffffffffffffffffffffffffffff1673ffffffffffffffffffffffffffffffffffffffff16815260200190815260200160002060000160009054906101000a900473ffffffffffffffffffffffffffffffffffffffff1673ffffffffffffffffffffffffffffffffffffffff16141515610b35576040517f08c379a00000000000000000000000000000000000000000000000000000000081526004018080602001828103825260138152602001807f4d617070696e6720616c7265616479207365740000000000000000000000000081525060200191505060405180910390fd5b33816000019073ffffffffffffffffffffffffffffffffffffffff16908173ffffffffffffffffffffffffffffffffffffffff16815250508181602001819052506002819080600181540180825580915050906001820390600052602060002090600802016000909192909190915060008201518160000160006101000a81548173ffffffffffffffffffffffffffffffffffffffff021916908373ffffffffffffffffffffffffffffffffffffffff1602179055506020820151816001019080519060200190610c07929190611632565b506040820151816002019080519060200190610c249291906116b2565b506060820151816003019080519060200190610c41929190611632565b506080820151816004019080519060200190610c5e929190611632565b5060a0820151816005019080519060200190610c7b929190611632565b5060c0820151816006019080519060200190610c98929190611632565b5060e0820151816007015550505080600160003373ffffffffffffffffffffffffffffffffffffffff1673ffffffffffffffffffffffffffffffffffffffff16815260200190815260200160002060008201518160000160006101000a81548173ffffffffffffffffffffffffffffffffffffffff021916908373ffffffffffffffffffffffffffffffffffffffff1602179055506020820151816001019080519060200190610d49929190611632565b506040820151816002019080519060200190610d669291906116b2565b506060820151816003019080519060200190610d83929190611632565b506080820151816004019080519060200190610da0929190611632565b5060a0820151816005019080519060200190610dbd929190611632565b5060c0820151816006019080519060200190610dda929190611632565b5060e082015181600701559050505050565b6060806060808460008060019150600090505b600160008473ffffffffffffffffffffffffffffffffffffffff1673ffffffffffffffffffffffffffffffffffffffff1681526020019081526020016000206002018054905081101561128b573373ffffffffffffffffffffffffffffffffffffffff16600160008573ffffffffffffffffffffffffffffffffffffffff1673ffffffffffffffffffffffffffffffffffffffff16815260200190815260200160002060020182815481101515610eb257fe5b9060005260206000200160009054906101000a900473ffffffffffffffffffffffffffffffffffffffff1673ffffffffffffffffffffffffffffffffffffffff16141561127e5760009150600160008973ffffffffffffffffffffffffffffffffffffffff1673ffffffffffffffffffffffffffffffffffffffff168152602001908152602001600020600301600160008a73ffffffffffffffffffffffffffffffffffffffff1673ffffffffffffffffffffffffffffffffffffffff168152602001908152602001600020600401600160008b73ffffffffffffffffffffffffffffffffffffffff1673ffffffffffffffffffffffffffffffffffffffff168152602001908152602001600020600501600160008c73ffffffffffffffffffffffffffffffffffffffff1673ffffffffffffffffffffffffffffffffffffffff168152602001908152602001600020600601838054600181600116156101000203166002900480601f01602080910402602001604051908101604052809291908181526020018280546001816001161561010002031660029004801561109a5780601f1061106f5761010080835404028352916020019161109a565b820191906000526020600020905b81548152906001019060200180831161107d57829003601f168201915b50505050509350828054600181600116156101000203166002900480601f0160208091040260200160405190810160405280929190818152602001828054600181600116156101000203166002900480156111365780601f1061110b57610100808354040283529160200191611136565b820191906000526020600020905b81548152906001019060200180831161111957829003601f168201915b50505050509250818054600181600116156101000203166002900480601f0160208091040260200160405190810160405280929190818152602001828054600181600116156101000203166002900480156111d25780601f106111a7576101008083540402835291602001916111d2565b820191906000526020600020905b8154815290600101906020018083116111b557829003601f168201915b50505050509150808054600181600116156101000203166002900480601f01602080910402602001604051908101604052809291908181526020018280546001816001161561010002031660029004801561126e5780601f106112435761010080835404028352916020019161126e565b820191906000526020600020905b81548152906001019060200180831161125157829003601f168201915b5050505050905096509650965096505b8080600101915050610dff565b81156112ff576040517f08c379a00000000000000000000000000000000000000000000000000000000081526004018080602001828103825260118152602001807f6e6f74206f6e206163636573736c69737400000000000000000000000000000081525060200191505060405180910390fd5b5050509193509193565b6000600280549050905090565b670de0b6b3a76400008102600160003373ffffffffffffffffffffffffffffffffffffffff1673ffffffffffffffffffffffffffffffffffffffff1681526020019081526020016000206007018190555050565b6000606060028381548110151561137d57fe5b906000526020600020906008020160000160009054906101000a900473ffffffffffffffffffffffffffffffffffffffff166002848154811015156113be57fe5b9060005260206000209060080201600101808054600181600116156101000203166002900480601f0160208091040260200160405190810160405280929190818152602001828054600181600116156101000203166002900480156114645780601f1061143957610100808354040283529160200191611464565b820191906000526020600020905b81548152906001019060200180831161144757829003601f168201915b5050505050905091509150915091565b83600160003373ffffffffffffffffffffffffffffffffffffffff1673ffffffffffffffffffffffffffffffffffffffff16815260200190815260200160002060030190805190602001906114ca92919061173c565b5082600160003373ffffffffffffffffffffffffffffffffffffffff1673ffffffffffffffffffffffffffffffffffffffff168152602001908152602001600020600401908051906020019061152192919061173c565b5081600160003373ffffffffffffffffffffffffffffffffffffffff1673ffffffffffffffffffffffffffffffffffffffff168152602001908152602001600020600501908051906020019061157892919061173c565b5080600160003373ffffffffffffffffffffffffffffffffffffffff1673ffffffffffffffffffffffffffffffffffffffff16815260200190815260200160002060060190805190602001906115cf92919061173c565b5050505050565b61010060405190810160405280600073ffffffffffffffffffffffffffffffffffffffff168152602001606081526020016060815260200160608152602001606081526020016060815260200160608152602001600081525090565b828054600181600116156101000203166002900490600052602060002090601f016020900481019282601f1061167357805160ff19168380011785556116a1565b828001600101855582156116a1579182015b828111156116a0578251825591602001919060010190611685565b5b5090506116ae91906117bc565b5090565b82805482825590600052602060002090810192821561172b579160200282015b8281111561172a5782518260006101000a81548173ffffffffffffffffffffffffffffffffffffffff021916908373ffffffffffffffffffffffffffffffffffffffff160217905550916020019190600101906116d2565b5b50905061173891906117e1565b5090565b828054600181600116156101000203166002900490600052602060002090601f016020900481019282601f1061177d57805160ff19168380011785556117ab565b828001600101855582156117ab579182015b828111156117aa57825182559160200191906001019061178f565b5b5090506117b891906117bc565b5090565b6117de91905b808211156117da5760008160009055506001016117c2565b5090565b90565b61182191905b8082111561181d57600081816101000a81549073ffffffffffffffffffffffffffffffffffffffff0219169055506001016117e7565b5090565b905600a165627a7a72305820683a3300460831817705a1b87cd3614af5e4cef4cdda746497f1f79f32f8dbd70029",
  "source": "pragma solidity ^0.4.24;\n\ncontract WeatherC2 {\n    \n    address owner;\n    //uint constant price = 1 ether;\n    mapping (address => WeatherStation) private stations;\n\n    struct WeatherStation {\n        address stationAddress;\n        string name;\n        address[] accessList;\n        string temperature;\n        string humidity;\n        string picture;\n        string livestream;\n        uint price;\n    }\n    \n    WeatherStation[] private addressList;\n  \n  \n    constructor() public {\n        owner = msg.sender;\n    }\n    \n    //checks if the owner tries to execute the function\n    modifier onlyBy {\n        require(msg.sender == owner, \"not owner\");\n        _;\n    }\n\n    //If the delivered station address is on the accesslist the function will be executed\n    modifier onAccessList(address sAddress) {\n        bool x;\n        x = true;\n        \n        for(uint i = 0; i < stations[sAddress].accessList.length; i++){\n            \n            if (stations[sAddress].accessList[i] == msg.sender){\n                x = false;\n                _;\n            }\n        }\n        if (x){\n            revert(\"not on accesslist\");    \n        }\n        \n    }\n    \n    //If the delivered station address is NOT on the accesslist the function will be executed\n    modifier notOnAccessList(address sAddress) {\n        \n        for(uint i = 0; i < stations[sAddress].accessList.length; i++){\n            \n            if (stations[sAddress].accessList[i] == msg.sender){\n                revert(\"Already paid\");\n            }\n        }\n        _;\n    }\n    \n    //checks if mapping is already set\n    modifier addressNotZero() {\n        require(stations[msg.sender].stationAddress == address(0x0), \"Mapping already set\");\n        _;\n    }\n\n    //Creates a new Weather Station. Can only be executed once per Station\n    function createStation(string name) public addressNotZero {\n        WeatherStation memory ws;\n        ws.stationAddress = msg.sender;\n        ws.name = name;\n        addressList.push(ws);\n        stations[msg.sender] = ws;\n    }\n    \n    //The Weather Station can only update references for itself (msg.sender)\n    function updateReference(string tem, string hum, string pic, string live) public {\n        stations[msg.sender].temperature = tem;\n        stations[msg.sender].humidity = hum;\n        stations[msg.sender].picture = pic;\n        stations[msg.sender].livestream = live;\n    }\n    \n    function updatePrice(uint price) public {\n        stations[msg.sender].price = price * 1000000000000000000;\n    }\n\n    //function to pay for the data. Can be executed only once per account.\n    function pay(address sAddress) public notOnAccessList(sAddress) payable {\n        if (msg.value != stations[sAddress].price || msg.value == 0) {\n           revert(\"Not enough Ether\");\n        }\n        \n        stations[sAddress].accessList.push(msg.sender);\n        sAddress.transfer(stations[sAddress].price);\n    }\n    \n    //Returns data references, checks if account already paid.\n    function getReference(address sAddress) public constant onAccessList(sAddress) returns(string, string, string, string) {\n        return(stations[sAddress].temperature, stations[sAddress].humidity, stations[sAddress].picture, stations[sAddress].livestream);\n    }\n    \n    //Returns\n    function getStations(uint nr) public constant returns(address, string) {\n        return (addressList[nr].stationAddress, addressList[nr].name);\n    }\n    \n    //returns station count\n    function getStationCount() public constant returns(uint) {\n        return (addressList.length);\n    }\n\n\n    //Destroys this smart contract, all funds of this smart contracts gets back to owner (should be nothing)\n    function destroyContract() public onlyBy {\n        selfdestruct(owner);\n    }\n\n}\n",
  "sourcePath": "/root/contracts/WeatherC2/contracts/WeatherC2.sol",
  "compiler": {
    "name": "solc",
    "version": "0.4.24+commit.e67f0147.Emscripten.clang"
  },
  "schemaVersion": "2.0.0",
  "updatedAt": "2018-05-26T11:42:07.804Z"
}